:020000040800F2
:10000000300900209D01000849530008113E0008F6
:10001000B94F00082D080008296F000800000000F3
:10002000000000000000000000000000F95300087C
:100030003108000800000000F5530008BD61000809
:10004000B7010008B7010008B7010008B7010008B0
:10005000B7010008B7010008B7010008B7010008A0
:10006000B7010008B7010008B7010008B701000890
:10007000B7010008B7010008B7010008B701000880
:10008000B7010008B7010008B7010008B701000870
:10009000B7010008B7010008B7010008B701000860
:1000A000B7010008B7010008B7010008B701000850
:1000B000B7010008B7010008B7010008B701000840
:1000C000B7010008B7010008B7010008B701000830
:1000D000B7010008B7010008B7010008B701000820
:1000E000B7010008B7010008B7010008B701000810
:1000F000B7010008B7010008B7010008B701000800
:10010000B7010008B701000895620008B7010008B0
:10011000B7010008B7010008A962000819650008C6
:10012000B7010008B7010008B7010008B7010008CF
:10013000B7010008B7010008B7010008B7010008BF
:10014000B7010008B7010008B7010008B7010008AF
:10015000B7010008B7010008B7010008B70100089F
:10016000B7010008B7010008B7010008B70100088F
:10017000B7010008B7010008B7010008000000003F
:10018000B7010008B7010008DFF80CD000F036FB1B
:1001900000480047ED6F00083009002006488047FE
:1001A00006480047FEE7FEE7FEE7FEE7FEE7FEE75C
:1001B000FEE7FEE7FEE7FEE781620008890100082E
:1001C0002DE9F05F0546002092469B46884606468C
:1001D000814640241BE0284641464746224600F01F
:1001E00057FA53465A46C01A914110D31146184641
:1001F000224600F03EFA2D1A67EB01084F462246D0
:100200000120002100F035FA17EB00094E41201EB5
:10021000A4F10104DFDC484631462A464346BDE8E6
:10022000F09FD2B201E000F8012B491EFBD27047CB
:100230000022F6E710B513460A4604461946FFF7B2
:10024000F0FF204610BD2DE9FE4F804681EA0300F5
:10025000C00F0C46009021F0004123F00045B8EBA0
:100260000200A94105D24046214690461C460B4655
:10027000024623F00040104347D0270DC7F30A0081
:10028000C3F30A510290401A019040286BDAC3F37D
:10029000130040F4801B0098924620B10023D2EB5B
:1002A000030A63EB0B0B01985946C0F1400250461C
:1002B00000F0DFF906460D4650465946019A00F017
:1002C000F7F910EB08006141002487EA115284EA33
:1002D000E7731A4340D0009A62B3019A012A4FEAA9
:1002E000075215DC001B61EB02014FF0004202EAED
:1002F0000752CDE90042001C41F5801132462B46E1
:1003000000F02EFA03B0BDE8F08F40462146F9E731
:10031000001B61EB0201001C41F5801300185B41DA
:100320002018A2F5001747EB030140EAD570B61973
:100330006D4111E06D084FEA360645EAC0754FEA97
:100340000752001B61EB0201001C41F580114908B6
:100350004FEA30000019514132462B4603B0BDE848
:10036000F04F00F0EEB90098012240000023D0EBDE
:10037000020263EBE073009821464FEAE074B8EBA9
:10038000000061EB0401E9E783F000435BE781F0E3
:10039000004158E72DE9FE4F81EA030404F00044D0
:1003A00021F0004100944FF0000B23F0004350EA8D
:1003B00001045ED052EA03045BD0C3F30A54C1F3D4
:1003C0000A552C44A4F2F3340194A0FB0254C1F367
:1003D000130141F48011C3F3130343F4801301FBB1
:1003E000024400FB034E840A970A44EA815447EA18
:1003F0008357A4FB076802958D0A05FB07854FEA22
:10040000932C04FB0C542705029D4FEA065847EA3B
:100410001637B5EB08056EEB070C870E920E47EA10
:10042000811742EA8312A7FB0201B6EB0B0164EBD2
:1004300000042B0D43EA0C335E1844EB1C50DA46E3
:100440005146E7FB0201C5F313044FEA0B3343EABD
:1004500014534FEA0432019C43EA0603A4F10C044E
:100460000294009CCDE900B400F07AF903B0BDE835
:10047000F08F00200146F9E72DE9F04D81EA0304F1
:1004800004F0004B21F0004514464FF0000A23F021
:10049000004150EA050220D054EA01021DD0C5F304
:1004A0000A570246C5F31303C1F31300C1F30A56FA
:1004B00040F4801543F48013A7EB0608101BD646C2
:1004C00008F2FD3873EB050002D308F1010801E0E2
:1004D00092185B41B8F1000F03DA00200146BDE835
:1004E000F08D00204FF48011064684460EE0171B65
:1004F00073EB050705D3121B63EB050306434CEAB8
:10050000010C49084FEA300092185B4150EA01079C
:10051000EDD152EA030012D082EA040083EA050119
:10052000084305D0101BAB4106D20122002306E090
:1005300000224FF0004302E06FF0010253101AEB6B
:1005400006004CEB085110EB0A0041EB0B01BDE833
:10055000F04D00F0F6B830B5041E71F1000404DB74
:100560004FF00044404264EB0101141E73F100049B
:1005700005DB1C464FF00043524263EB0403101AA4
:100580008B4101D2012030BD002030BD30B5041EAA
:1005900071F1000404DB4FF00044404264EB0101C0
:1005A000141E73F1000405DB1C464FF00043524259
:1005B00063EB0403801A994101D2012030BD002071
:1005C00030BD30B5041E71F1000404DB4FF000446F
:1005D000404264EB0101141E73F1000405DB1C466C
:1005E0004FF00043524263EB040342404B401A4336
:1005F00001D0002030BD012030BD0EB540F23341A6
:1006000002910021CDE900110A460B4600F0A8F83E
:1006100003B000BD00F0004230F000400AD0C10D30
:1006200001F56071C0F3160042EA0151C2084007AB
:100630001143704700200146704701F0004330B479
:1006400021F0004150EA010206D00A0DA2F56072C5
:10065000C1F31301002A02DC30BC00207047440FB4
:1006600044EAC104C100E01830BC00EBC25000F005
:1006700031B8202A04DB203A00FA02F1002070474A
:100680009140C2F1200320FA03F3194390407047D0
:10069000202A04DB203A21FA02F00021704721FAD7
:1006A00002F3D040C2F1200291400843194670473E
:1006B000202A06DBCB17203A41FA02F043EAE07326
:1006C00006E041FA02F3D040C2F120029140084313
:1006D000194670470029A8BF7047401C490008BF51
:1006E00020F00100704710B4B0FA80FC00FA0CF062
:1006F00050EA010404BF10BC704749B1CCF120049A
:1007000021FA04F411FA0CF118BF01212143084326
:10071000A3EB0C01CB1D4FEA00614FEA102042BF52
:10072000002010BC704700EBC35010440029A4BF48
:1007300010BC7047401C490008BF20F0010010BCED
:10074000704710B5141E73F1000408DA401C41F123
:10075000000192185B411A4301D120F0010010BD45
:100760002DE9F04D92469B4611B1B1FA81F202E0BB
:10077000B0FA80F220329046FFF77BFF04460F4626
:1007800040EA0A0041EA0B0153465A46084313D097
:10079000114653EA010019D0C8F140025046FFF754
:1007A00077FF05460E46504659464246FFF761FF21
:1007B000084305D0012004E020463946BDE8F08D0D
:1007C0000020054346EAE0762C4337430A98630548
:1007D000E40AA0EB08000022FD0A44EA47540A306C
:1007E00002D500200146E9E7010510196941DDE95C
:1007F000084500196941BDE8F04DA2E71CB509485C
:100800000090094801900546009C06E0E06840F031
:10081000010394E8070098471034AC42F6D3FFF781
:10082000B7FC00003872000858720008FFE7FEE7C6
:100830007047000072B6FFE7FEE7000083B08DED61
:10084000020ACDED010A0090019800990860029813
:1008500000994860009890ED000A90ED011A30EE82
:10086000410A80ED020A009890ED021A90ED090A03
:1008700030EE010A80ED090A009890ED090AB0EE09
:10088000C00AB7EE001AB4EE410AF1EE10FA05DB29
:10089000FFE700994FF07E504862FFE7009890ED27
:1008A000022A90ED033A90ED051A90ED060A90EDBC
:1008B000094A21EE041AB6EE004A21EE041A20EE8F
:1008C000020A30EE011A90ED070A32EE432A20EEBA
:1008D000020A30EE010A80ED080A00998868C860B3
:1008E000009890ED080A90ED0A1AB0EEC00AB4EE36
:1008F000410AF1EE10FA04DBFFE70099886A08620A
:10090000FFE7009890ED080A03B0704780B58AB001
:1009100040F28840C2F20000039002680021049176
:10092000516203686FF002021A6103686FF00402FB
:100930001A6102F0EDFC0398042102F0E9FC06F0D4
:1009400077FA049840F2B801C2F20001087000F092
:100950008DFD32300990FFE70998029000F086FD86
:100960000146029888421CD9FFE740F28840C2F253
:10097000000001680969C1F340010891006800693D
:10098000C0F380000790089850B1FFE7079838B18E
:10099000FFE740F2B801C2F200010120087000E058
:1009A000DAE740F28840C2F200000190002102F034
:1009B000CBFD0198042102F0C7FD40F2B800C2F25D
:1009C0000000007801282CD1FFE740F28840C2F2F5
:1009D00000000168496BADF81A100068806BADF833
:1009E0001800BDF81800BDF81A10401A00EE100AE1
:1009F000B8EEC00A9FED0C1A20EE010A8DED050A33
:100A00009DED050A9FED091A20EE010AB6EE001AC7
:100A100020EE010A40F2AC00C2F2000080ED000AB4
:100A2000FFE70AB080BD00BFBD3786350004A64889
:100A300080B58AB040F2D040C2F200000390026854
:100A400000210491516203686FF002021A61036889
:100A50006FF004021A6102F05BFC0398042102F0BB
:100A600057FC06F023FA049840F2B901C2F20001E3
:100A7000087000F0FBFC32300990FFE70998029003
:100A800000F0F4FC0146029888421CD9FFE740F2CE
:100A9000D040C2F2000001680969C1F34001089129
:100AA00000680069C0F380000790089850B1FFE724
:100AB000079838B1FFE740F2B901C2F20001012006
:100AC000087000E0DAE740F2D040C2F20000019086
:100AD000002102F039FD0198042102F035FD40F2B9
:100AE000B900C2F20000007801282CD1FFE740F2E3
:100AF000D040C2F200000168496BADF81A100068DE
:100B0000806BADF81800BDF81800BDF81A10401A37
:100B100000EE100AB8EEC00A9FED0C1A20EE010A92
:100B20008DED050A9DED050A9FED091A20EE010ADB
:100B3000B6EE001A20EE010A40F2B000C2F2000048
:100B400080ED000AFFE70AB080BD00BFBD378635E3
:100B50000004A64880B588B00790079840F2CC0101
:100B6000C2F2000188421AD1FFE703F067FC8DF85A
:100B70001B0000200590FFE7059807280EDCFFE723
:100B80009DF81B00059AD04000F00100079941F83C
:100B90002200FFE7059801300590EDE745E0079852
:100BA00040F20C11C2F2000188421AD1FFE703F0B3
:100BB00053FC8DF8130000200390FFE703980728EB
:100BC0000EDCFFE79DF81300039AD04000F001000F
:100BD000079941F82200FFE7039801300390EDE701
:100BE00022E0079840F2EC01C2F2000188421AD1DB
:100BF000FFE703F03FFC8DF80B0000200190FFE7BA
:100C0000019807280EDCFFE79DF80B00019AD04001
:100C100000F00100079941F82200FFE70198013038
:100C20000190EDE7FFE7FFE7FFE708B080BD0000B8
:100C300080B594B08DED130ACDED120A8DED111A29
:100C40009DED130A9DED121A30EE010A10EE100A06
:100C5000FFF7E0FC41EC100B8DED0E0B1198FFF748
:100C6000D9FC41EC100B9FEDEC1B53EC112B51EC1C
:100C7000100BFFF78FFB9DED0E0B02460B4651EC60
:100C8000100B43EC102B53EC102BFFF7DCFA41EC6C
:100C9000100B51EC100B9FEDE20B53EC102BFFF7F8
:100CA00090FC38B1FFE740F27C01C2F20001002065
:100CB00008603AE09DED130A9DED121A30EE010A2C
:100CC00010EE100AFFF7A6FC41EC100B8DED0C0B9B
:100CD0001198FFF79FFC41EC100B9FEDD31B53ECD9
:100CE000112B51EC100BFFF755FB9DED0C0B53EC4A
:100CF000102B41EC100B51EC100BFFF745FB41ECB6
:100D0000100B53EC102B9FEDCA0B51EC100BFFF79F
:100D1000B3FB41EC100B51EC100BFFF78EFC40F2D3
:100D20007C01C2F200010860FFE79DED130A9DED12
:100D3000121A30EE410A10EE100AFFF76BFC41EC7C
:100D4000100B8DED0A0B1198FFF764FC41EC100BB2
:100D50009FEDB11B53EC112B51EC100BFFF71AFB5D
:100D60009DED0A0B02460B4651EC100B43EC102B89
:100D700053EC102BFFF767FA41EC100B51EC100B02
:100D80009FEDA70B53EC102BFFF71BFC38B1FFE7CF
:100D900040F27C01C2F20001002048603AE09DED83
:100DA000131A9DED120A30EE410A10EE100AFFF7F9
:100DB00031FC41EC100B8DED080B1198FFF72AFC6C
:100DC00041EC100B9FED981B53EC112B51EC100BC9
:100DD000FFF7E0FA9DED080B53EC102B41EC100BE4
:100DE00051EC100BFFF72FFA41EC100B53EC102BCA
:100DF0009FED8F0B51EC100BFFF73EFB41EC100BFE
:100E000051EC100BFFF719FC40F27C01C2F200011B
:100E10004860FFE79DED130A9DED121A30EE410A7E
:100E200010EE100AFFF7F6FB41EC100B8DED060BF0
:100E30001198FFF7EFFB41EC100B9FED7B1B53EC80
:100E4000112B51EC100BFFF7A5FA9DED060B53EC9F
:100E5000102B41EC100B51EC100BFFF7F4F941ECA7
:100E6000100B51EC100B9FED6E0B53EC102BFFF79A
:100E7000A8FB38B1FFE740F27C01C2F2000100207C
:100E800088603AE09DED130A9DED121A30EE410A9A
:100E900010EE100AFFF7BEFB41EC100B8DED040BBA
:100EA0001198FFF7B7FB41EC100B9FED5F1B53EC64
:100EB000112B51EC100BFFF76DFA9DED040B53EC69
:100EC000102B41EC100B51EC100BFFF7BCF941EC6F
:100ED000100B53EC102B9FED580B51EC100BFFF740
:100EE000CBFA41EC100B51EC100BFFF7A6FB40F2D4
:100EF0007C01C2F200018860FFE79DED130A9DEDC1
:100F0000121A30EE010A10EE100AFFF783FB41ECD3
:100F1000100B8DED020B1198FFF77CFB41EC100BD1
:100F20009FED411B53EC112B51EC100BFFF732FAE4
:100F30009DED020B53EC102B41EC100B51EC100B00
:100F4000FFF781F941EC100B51EC100B9FED340BC6
:100F500053EC102BFFF735FB38B1FFE740F27C0173
:100F6000C2F200010020C8603AE09DED130A9DED39
:100F7000121A30EE010A10EE100AFFF74BFB41EC9B
:100F8000100B8DED000B1198FFF744FB41EC100B9B
:100F90009FED251B53EC112B51EC100BFFF7FAF9C9
:100FA0009DED000B53EC102B41EC100B51EC100B92
:100FB000FFF749F941EC100B53EC102B9FED1E0B82
:100FC00051EC100BFFF758FA41EC100B51EC100BE1
:100FD000FFF733FB40F27C01C2F20001C860FFE77B
:100FE00000201090FFE71098032812D8FFE7109A0E
:100FF000501C40F27C01C2F2000101EB820191ED34
:10100000000A012104F0FAF9FFE71098013010906E
:10101000E9E714B080BD00BF6E1283C0CAA1C5BF8E
:1010200000000000000000006E1283C0CAA1C53F8E
:10103000852A357BA015D0BF852A357BA015D03FEA
:1010400080B584B0039000F011FA029003980190EB
:101050000198013048B1FFE740F22C00C2F20000D5
:101060000178019808440190FFE7FFE700F0FEF9DE
:101070000299401A0199884201D2FFE7F6E704B0CD
:1010800080BD00008EB00D900C9100200A90099058
:1010900008900B90FFE70B980F2800F2CC81FFE738
:1010A0000B99012088400A900C9800680A99084022
:1010B000099009980A99884240F0B881FFE70C9896
:1010C000406800F00300012807D0FFE70C98406853
:1010D00000F0030002282FD1FFE70D9880680890E8
:1010E0000B984100032000FA01F10898884308900A
:1010F0000C98C0680B99490000FA01F10898084360
:10110000089008980D9988600D98406808900B9990
:10111000012000FA01F10898884308900C98406873
:10112000C0F300100B9900FA01F1089808430890E9
:1011300008980D994860FFE70C98406800F003009C
:10114000032818D0FFE70D98C06808900B9841005D
:10115000032000FA01F10898884308900C988068F1
:101160000B99490000FA01F1089808430890089883
:101170000D99C860FFE70C98406800F00300022852
:1011800026D1FFE70D980B996FF0030202EA510197
:101190000844006A08900B9800F0070081000F20B7
:1011A00000FA01F10898884308900C9800690B999F
:1011B00001F00701890000FA01F10898084308903E
:1011C00008980D990B9B02EA530211440862FFE74D
:1011D0000D98006808900B984100032000FA01F177
:1011E0000898884308900C98406800F003000B9919
:1011F000490000FA01F108980843089008980D99F1
:1012000008600C9880798007002800F00E81FFE7C5
:10121000FFE70020079043F64400C4F20200016893
:1012200041F480410160006800F480400790079815
:10123000FFE70B9820F0030043F60801C4F2010118
:10124000405808900B9800F0030081000F2000FA2E
:1012500001F10898884308900D980021C4F202011A
:10126000884203D1FFE7002006905EE00D9840F22F
:101270000041C4F20201884203D1FFE7012005903A
:1012800050E00D9840F60001C4F20201884203D1FB
:10129000FFE70220049042E00D9840F60041C4F2BE
:1012A0000201884203D1FFE70320039034E00D9848
:1012B00041F20001C4F20201884203D1FFE7042099
:1012C000029026E00D9841F20041C4F202018842EA
:1012D00003D1FFE70520019018E00D9841F60001C9
:1012E000C4F20201884203D1FFE7062000900AE021
:1012F0000D9941F60042C4F202020820914208BF53
:1013000007200090FFE700980190FFE70198029006
:10131000FFE702980390FFE703980490FFE7049823
:101320000590FFE705980690FFE70698C0B20B9975
:1013300001F00301890000FA01F1089808430890C0
:1013400008980B9921F0030143F60802C4F2010248
:10135000885043F60840C4F20100006808900999DB
:101360000898884308900C988079C006002805D515
:10137000FFE70999089808430890FFE7089843F6A3
:101380000841C4F20101086043F60C40C4F20100B8
:101390000068089009990898884308900C9880790B
:1013A0008006002805D5FFE70999089808430890AA
:1013B000FFE7089843F60C41C4F20101086043F6C8
:1013C0000440C4F201000068089009990898884315
:1013D00008900C9880798007002805D5FFE70999C7
:1013E000089808430890FFE7089843F60441C4F2C0
:1013F0000101086043F60040C4F201000068089053
:1014000009990898884308900C988079C00728B1FA
:10141000FFE70999089808430890FFE7089843F602
:101420000041C4F201010860FFE7FFE7FFE70B9806
:1014300001300B902FE60EB07047000082B0019093
:10144000ADF802108DF801209DF8010028B1FFE7EA
:10145000BDF802000199886105E0BDF802000004B2
:1014600001998861FFE702B07047000040F2185010
:10147000C2F200000068704780B58EB00C900C98E6
:1014800020B9FFE701208DF8370043E10C9890F870
:101490003D0040B9FFE70C99002081F83C000C9812
:1014A00000F060FBFFE70C99242081F83D000C98C8
:1014B0000168086820F0010008600C98016808685D
:1014C00040F4004008600C980168086820F400406F
:1014D000086000F023FE0A900C98406848F2A06172
:1014E000C0F2010188420BD8FFE70A9948F2804216
:1014F000C0F21E020020914238BF012009900AE08C
:101500000A9940F60012C0F23D020020914238BF15
:1015100001200990FFE70998012804D1FFE7012085
:101520008DF83700F6E00A984DF68361C4F21B315E
:10153000A0FB0110800C0B900C980068406820F014
:101540003F000B9908430C99096848600C980068A3
:10155000006A20F03F0008900C98406848F2A061B3
:10156000C0F20101884204D8FFE70B9801300790D0
:101570000EE00B984FF49671484344F6D351C1F2F4
:101580006201A0FB0101012000EB91100790FFE731
:101590000898079908430C99096808620C98006834
:1015A000C0694CF6FF71884306900C98406848F279
:1015B000A061C0F2010188421FD8FFE70A980138F4
:1015C0000C9949684900B0FBF1F001306FF31F300E
:1015D000032803D8FFE7042005900BE00A980138A0
:1015E0000C9949684900B0FBF1F001306FF31F30EE
:1015F0000590FFE7059804904CE00C98806868B966
:10160000FFE70A9801380C99496801EB4101B0FBEA
:10161000F1F001306FF31F3003900DE00A980138AC
:101620000C99496819225143B0FBF1F001300421B3
:1016300061F31F300390FFE70398000518B9FFE737
:101640000120029023E00C98806868B9FFE70A98AF
:1016500001380C99496801EB4101B0FBF1F0013010
:101660006FF31F3001900DE00A9801380C9949681A
:1016700019225143B0FBF1F00130042161F31F3016
:101680000190FFE7019840F400400290FFE70298C4
:101690000490FFE70698049908430C990968C8610B
:1016A0000C980068006820F0C0000C9B1968DA698B
:1016B0001B6A1A43104308600C980068806848F25F
:1016C000FF3188430C9A1168D36812691A4310439A
:1016D00088600C980068C06820F0FF000C9B1968B7
:1016E0005A699B691A431043C8600C9801680868DE
:1016F00040F0010008600C99002008640C9A202139
:1017000082F83D100C9908630C9981F83E008DF821
:101710003700FFE79DF837000EB080BD10B58CB0E4
:10172000844610980F98DDF838E0CDF828C0ADF861
:101730002610ADF82420ADF82230ADF82000FFF7D8
:1017400095FE07900A9890F83D00202840F002820C
:10175000FFE70A9807996A4611600221C0F210015A
:101760000122192302F07AFC20B1FFE702208DF854
:101770002F00F3E1FFE70A9890F83C00012804D11C
:10178000FFE702208DF82F00E8E10A99012081F897
:101790003C00FFE7FFE70A980068006800F00100DE
:1017A000012807D0FFE70A980168086840F00100A7
:1017B0000860FFE70A980168086820F40060086084
:1017C0000A99222081F83D000A99402081F83E00C4
:1017D0000A99002008640E980A994862BDF8200012
:1017E0000A9948850A98408D0A9908850A99002027
:1017F000CFF6FF70C8620A98BDF82610BDF8242005
:10180000BDF82230DDF840C0079CEE46CEF804401B
:10181000CEF800C002F030FB20B1FFE701208DF8C8
:101820002F009BE10A98008DA0B9FFE7FFE7002099
:1018300006900A980068406906900A9800688069D6
:1018400006900698FFE70A980168086840F400705F
:1018500008604DE00A98008D01281AD1FFE70A9828
:101860000168086820F480600860FFE700200590A8
:101870000A980068406905900A9800688069059098
:101880000598FFE70A980168086840F4007008604E
:101890002DE00A98008D02281AD1FFE70A98016806
:1018A000086820F4806008600A980168086840F4BD
:1018B00000600860FFE7002004900A980068406913
:1018C00004900A980068806904900498FFE70DE08E
:1018D000FFE7002003900A980068406903900A9887
:1018E0000068806903900398FFE7FFE7FFE7FFE7E1
:1018F000FFE70A98008D002800F01A81FFE70A9898
:10190000008D032800F2CC80FFE70A98008D0128A3
:101910001ED1FFE70A981099079A02F0CDFC20B17A
:10192000FFE701208DF82F0018E10A980068006990
:101930000A99496A08700A99486A013048620A9906
:10194000088D013808850A99488D01384885A6E038
:101950000A98008D02283CD1FFE70A98109B07994E
:101960006A4611600421C0F20101002202F076FBF8
:1019700020B1FFE701208DF82F00EFE00A98016801
:10198000086840F4007008600A98006800690A99C5
:10199000496A08700A99486A013048620A99088DB4
:1019A000013808850A99488D013848850A980068E9
:1019B00000690A99496A08700A99486A01304862C0
:1019C0000A99088D013808850A99488D013848859B
:1019D00064E00A98109B07996A4611600421C0F2DE
:1019E0000101002202F03AFB20B1FFE701208DF84F
:1019F0002F00B3E00A980168086820F4806008604E
:101A00000A98006800690A99496A08700A99486A40
:101A1000013048620A99088D013808850A99488D75
:101A2000013848850A98109B07996A46116004217D
:101A3000C0F20101002202F011FB20B1FFE70120FA
:101A40008DF82F008AE00A980168086840F4007059
:101A500008600A98006800690A99496A08700A993A
:101A6000486A013048620A99088D013808850A9948
:101A7000488D013848850A98006800690A99496AC2
:101A800008700A99486A013048620A99088D01383D
:101A900008850A99488D01384885FFE7FFE746E049
:101AA0000A981099079A02F007FC20B1FFE701207D
:101AB0008DF82F0052E00A98006800690A99496A77
:101AC00008700A99486A013048620A99088D0138FD
:101AD00008850A99488D013848850A980068406948
:101AE00000F004010120B0EB910F1FD1FFE70A982D
:101AF000008D032807D1FFE70A980168086820F4E1
:101B000080600860FFE70A98006800690A99496ADE
:101B100008700A99486A013048620A99088D0138AC
:101B200008850A99488D01384885FFE7FFE7E0E618
:101B30000A99202081F83D000A99002081F83E0092
:101B4000FFE70A99002081F83C00FFE700208DF8AC
:101B50002F0003E002208DF82F00FFE79DF82F00F3
:101B60000CB010BD80B592B01190002010900F9075
:101B70000E900D900C901198006845F20041C4F24F
:101B80000001884234D1FFE7FFE700200B9043F6C5
:101B90003000C4F20200016841F0020101600068F7
:101BA00000F002000B900B98FFE7C0200C90122071
:101BB0000D9000200E9003200F900420109040F212
:101BC0000040C4F202000CA9FFF75CFAFFE7002016
:101BD0000A9043F64000C4F20200016841F400118B
:101BE0000160006800F400100A900A98FFE7A7E07F
:101BF0001198006845F60001C4F20001884235D111
:101C0000FFE7FFE70020099043F63000C4F202002E
:101C1000016841F002010160006800F002000990D3
:101C20000998FFE74FF440600C9012200D900020BF
:101C30000E9003200F900420109040F20040C4F258
:101C400002000CA9FFF71EFAFFE70020089043F6F8
:101C50004000C4F20200016841F4800101600068A4
:101C600000F4800008900898FFE768E01198006889
:101C700045F60041C4F2000188425FD1FFE7FFE76B
:101C80000020079043F63000C4F20200016841F0E2
:101C900004010160006800F0040007900798FFE766
:101CA000FFE70020069043F63000C4F2020001680E
:101CB00041F001010160006800F001000690069803
:101CC000FFE74FF400700C90122000900D90002060
:101CD00001900E90032002900F900420039010902A
:101CE00040F60000C4F202000CA90491FFF7CAF903
:101CF000DDF800C0019B029A039804994FF4807E9E
:101D0000CDF830E0CDF834C00E930F921090002043
:101D1000C4F20200FFF7B6F9FFE70020059043F692
:101D20004000C4F20200016841F400010160006853
:101D300000F4000005900598FFE7FFE7FFE7FFE7E5
:101D400012B080BD40F22C00C2F20000027840F2D6
:101D50001851C2F200010868104408607047000082
:101D600080B543F60041C4F20201086840F40070F7
:101D70000860086840F480600860086840F480707B
:101D80000860032000F08AF80F2000F005F800F04A
:101D90003BF8002080BD000080B582B0009040F28A
:101DA0002000C2F20000006840F22C01C2F20001E3
:101DB0000A784FF47A71B1FBF2F1B0FBF1F000F068
:101DC00093FD20B1FFE701208DF8070018E000988F
:101DD0000F280DD8FFE700994FF0FF30002200F0E8
:101DE00043F8009840F23001C2F20001086003E0BD
:101DF00001208DF8070003E000208DF80700FFE7C1
:101E00009DF8070002B080BD82B0FFE7002001907E
:101E100043F64400C4F20200016841F480410160CD
:101E2000006800F4804001900198FFE7FFE7002080
:101E3000009043F64000C4F20200016841F0805176
:101E40000160006800F0805000900098FFE702B049
:101E50007047000080B582B08DF807009DF907003B
:101E600005F064F802B080BD80B586B08DF817002B
:101E7000049103920020029005F070F802909DF901
:101E80001700019002980499039A03F05FFA014643
:101E9000019805F06BF806B080BD000080B582B0F7
:101EA0000190019805F084F802B080BD80B584B03F
:101EB00002900191029820B9FFE701208DF80F00F0
:101EC00021E1019843F60041C4F20201096801F0E2
:101ED0000701884212D9FFE7019943F60040C4F296
:101EE00002000170006800F007000199884204D0E8
:101EF000FFE701208DF80F0005E1FFE70298007869
:101F0000800700282AD5FFE70298007840070028BC
:101F100009D5FFE743F60801C4F20201086840F45E
:101F2000E0500860FFE7029800780007002809D514
:101F3000FFE743F60801C4F20201086840F460407C
:101F40000860FFE743F60801C4F20201086820F0C8
:101F5000F000029A926810430860FFE70298007848
:101F6000C00700286ED0FFE702984068012811D111
:101F7000FFE743F60000C4F20200006800F40031FD
:101F80000020B0EB514F04D1FFE701208DF80F0086
:101F9000B9E02CE002984068022805D0FFE70298DB
:101FA0004068032811D1FFE743F60000C4F20200A5
:101FB000006800F000710020B0EB516F04D1FFE722
:101FC00001208DF80F009EE010E043F60000C4F2FF
:101FD0000200006800F002010020B0EB510F04D1B4
:101FE000FFE701208DF80F008DE0FFE7FFE743F6E4
:101FF0000801C4F20201086820F00300029A526846
:1020000010430860FFF732FA0090FFE743F608003C
:10201000C4F20200006800F00C0002994968B0EBBD
:10202000810F0ED0FFE7FFF721FA0099401A41F225
:102030008931884204D3FFE703208DF80F0062E066
:10204000E4E7FFE7019843F60041C4F202010968A2
:1020500001F00701884212D2FFE7019943F60040E0
:10206000C4F202000170006800F007000199884284
:1020700004D0FFE701208DF80F0044E0FFE702984D
:102080000078400700280CD5FFE743F60801C4F2AA
:102090000201086820F4E050029AD26810430860F8
:1020A000FFE702980078000700280DD5FFE743F608
:1020B0000801C4F20201086820F46040029A126923
:1020C00040EAC2000860FFE700F03AF843F6080172
:1020D000C4F202010968C9B20A0947F22021C0F618
:1020E0000001895CC84040F22001C2F20001086092
:1020F00040F23000C2F200000068FFF74DFE002001
:102100008DF80F00FFE79DF80F0004B080BD0000C0
:1021100040F22000C2F200000068704780B5FFF76F
:10212000F7FF43F60801C4F202010968C1F38222F5
:1021300047F23021C0F60001895CC84080BD000034
:1021400080B586B00020059004900390029043F67D
:102150000800C4F20200006800F00C000146019182
:1021600040B1FFE7019804280AD0FFE7019808284A
:102170000CD04FE042F20040C0F2F40002904FE079
:1021800047F64000C0F27D10029049E043F604009B
:10219000C4F20200016801F03F01059100684002AD
:1021A000002813D5FFE743F60400C4F202000068DC
:1021B000C0F3881047F64001C0F27D11A0FB010179
:1021C000059A0023FDF7FCFF049012E043F604009B
:1021D000C4F202000068C0F3881042F20041C0F26D
:1021E000F401A0FB0101059A0023FDF7E9FF04902B
:1021F000FFE743F60400C4F20200006800F4403137
:10220000022000EBD130039004980399B0FBF1F069
:10221000029005E042F20040C0F2F4000290FFE7B5
:10222000029806B080BD000080B586B00490049886
:1022300020B9FFE701208DF8170050E304980078DB
:10224000C007002800F0A580FFE743F60800C4F2AD
:102250000200006800F00C00042813D0FFE743F6EA
:102260000800C4F20200006800F00C0008281ED12B
:10227000FFE743F60400C4F20200006840020028B1
:1022800015D5FFE743F60000C4F20200006800F431
:1022900000310020B0EB514F08D0FFE704984068B0
:1022A00020B9FFE701208DF8170018E370E0FFE781
:1022B00004984068B0F5803F09D1FFE743F600017C
:1022C000C4F20201086840F48030086020E00498FD
:1022D0004068B0F5A02F0DD1FFE743F60001C4F22E
:1022E0000201086840F480200860086840F48030EB
:1022F00008600CE043F60001C4F20201086820F413
:1023000080300860086820F480200860FFE7FFE75D
:10231000FFE704984068E8B1FFE7FFF7A7F80390EC
:10232000FFE743F60000C4F20200006800F4003149
:102330000020B0EB514F0CD1FFE7FFF797F803995E
:10234000401A652804D3FFE703208DF81700C6E282
:10235000E7E71CE0FFF78AF80390FFE743F6000089
:10236000C4F20200006800F400310020B0EB514FCD
:102370000CD0FFE7FFF77AF80399401A652804D3D9
:10238000FFE703208DF81700A9E2E7E7FFE7FFE783
:10239000FFE7049800788007002840F19680FFE767
:1023A00043F60800C4F20200006810F00C0F13D0CE
:1023B000FFE743F60800C4F20200006800F00C00DA
:1023C00008282CD1FFE743F60400C4F2020000689D
:1023D0004002002823D4FFE743F60000C4F20200C5
:1023E000006800F002010020B0EB510F09D0FFE7B8
:1023F0000498C068012804D0FFE701208DF8170079
:102400006DE243F60001C4F20201086820F0F80012
:10241000049A126940EAC2000860FFE754E0049899
:10242000C06870B3FFE70021C4F2472101200860B3
:10243000FFF71CF80390FFE743F60000C4F2020028
:10244000006800F002010020B0EB510F0CD1FFE753
:10245000FFF70CF80399401A032804D3FFE7032081
:102460008DF817003BE2E7E743F60001C4F20201F2
:10247000086820F0F800049A126940EAC200086077
:1024800021E00021C4F2472100200860FEF7EEFFA2
:102490000390FFE743F60000C4F20200006800F07A
:1024A00002010020B0EB510F0CD0FFE7FEF7DEFF7A
:1024B0000399401A032804D3FFE703208DF817007F
:1024C0000DE2E7E7FFE7FFE7FFE704980078000782
:1024D00000284BD5FFE70498406918B3FFE740F6A2
:1024E0008061C4F2472101200860FEF7BFFF03901E
:1024F000FFE743F67400C4F20200006800F0020136
:102500000020B0EB510F0CD1FFE7FEF7AFFF0399AE
:10251000401A032804D3FFE703208DF81700DEE1FB
:10252000E7E722E040F68061C4F24721002008601E
:10253000FEF79CFF0390FFE743F67400C4F202002D
:10254000006800F002010020B0EB510F0CD0FFE753
:10255000FEF78CFF0399401A032804D3FFE70320FA
:102560008DF81700BBE1E7E7FFE7FFE70498007885
:102570004007002840F1CE80FFE700208DF80700DB
:1025800043F64000C4F202000068C000002815D4E1
:10259000FFE7FFE70020009043F64000C4F202008E
:1025A000016841F080510160006800F080500090A7
:1025B0000098FFE701208DF80700FFE747F20000D1
:1025C000C4F200000068C005002822D4FFE747F2EB
:1025D0000001C4F20001086840F480700860FEF752
:1025E00045FF0390FFE747F20000C4F200000068D7
:1025F000C00500280CD4FFE7FEF738FF0399401A06
:10260000032804D3FFE703208DF8170067E1EAE70A
:10261000FFE7FFE704988068012809D1FFE743F648
:102620007001C4F20201086840F0010008601FE078
:102630000498806805280DD1FFE743F67001C4F2C5
:102640000201086840F004000860086840F00100DA
:1026500008600CE043F67001C4F20201086820F043
:1026600001000860086820F004000860FFE7FFE749
:10267000FFE704988068F8B1FFE7FEF7F7FE0390E4
:10268000FFE743F67000C4F20200006800F00201A8
:102690000020B0EB510F0ED1FFE7FEF7E7FE0399E4
:1026A000401A41F28931884204D3FFE703208DF8B4
:1026B000170014E1E5E71EE0FEF7D8FE0390FFE700
:1026C00043F67000C4F20200006800F0020100202E
:1026D000B0EB510F0ED0FFE7FEF7C8FE0399401A8A
:1026E00041F28931884204D3FFE703208DF81700B7
:1026F000F5E0E5E7FFE79DF80700012809D1FFE7CE
:1027000043F64001C4F20201086820F080500860DE
:10271000FFE7FFE704988069002800F0DC80FFE70E
:1027200043F60800C4F20200006800F00C0008281C
:1027300000F08580FFE70498806902285CD1FFE7FC
:102740006021C4F2472100200860FEF78FFE03904D
:10275000FFE743F60000C4F20200006800F00071D9
:102760000020B0EB516F0CD0FFE7FEF77FFE03991E
:10277000401A032804D3FFE703208DF81700AEE0CA
:10278000E7E70499C869D1F820C04B6A8A6A40EA31
:102790000C0040EA8310D2034FF6FF739A43A2F570
:1027A00080321043C96A40EA016043F60401C4F272
:1027B000020108606021C4F2472101200860FEF791
:1027C00055FE0390FFE743F60000C4F202000068E4
:1027D00000F000710020B0EB516F0CD1FFE7FEF765
:1027E00045FE0399401A032804D3FFE703208DF820
:1027F000170074E0E7E721E06021C4F247210020E0
:102800000860FEF733FE0390FFE743F60000C4F2D2
:102810000200006800F000710020B0EB516F0CD096
:10282000FFE7FEF723FE0399401A032804D3FFE7CE
:1028300003208DF8170052E0E7E7FFE74AE004982D
:102840008069012804D1FFE701208DF8170046E0D8
:1028500043F60400C4F20200006802900498806904
:10286000012831D0FFE7029800F480000499C9697B
:10287000884229D1FFE7029800F03F000499096AD5
:10288000884221D1FFE7029847F6C07108400499B9
:10289000496AB0EB811F17D1FFE7029800F440307E
:1028A0000499896AC9034FF6FF729143A1F58031FB
:1028B000884209D1FFE7029800F070600499C96A64
:1028C000B0EB016F04D0FFE701208DF8170006E0A0
:1028D000FFE7FFE7FFE700208DF81700FFE79DF80F
:1028E000170006B080BD000080B582B0019001984D
:1028F00003F03AFC02B080BD81B0009001B0704797
:1029000081B0009001B0704784B002900191002026
:102910000090FFE7029890F83C00012804D1FFE7FF
:1029200002208DF80F0044E00299012081F83C005C
:10293000FFE7FFE7009820F0FF000199C96808430E
:102940000090009820F44070019989680843009035
:10295000009820F48060019949680843009000982D
:1029600020F400600199096808430090009820F461
:1029700080500199096908430090009820F40050A4
:102980000199496908430090009820F4804001991A
:10299000C969084300900098029909684864FFE7F4
:1029A0000299002081F83C00FFE700208DF80F001D
:1029B000FFE79DF80F0004B07047000085B003905A
:1029C0000291FFE7039890F83C00012804D1FFE74B
:1029D00002208DF813007EE00399012081F83C006D
:1029E000FFE7FFE70399022081F83D0003980068A4
:1029F000406801900398006880680090019820F07A
:102A000070000190029801680198084301900198B4
:102A1000039909684860039800680021C4F2010125
:102A200088423CD0FFE703980068B0F1804F36D071
:102A3000FFE70398006840F20041C4F200018842B9
:102A40002DD0FFE70398006840F60001C4F20001B2
:102A5000884224D0FFE70398006840F60041C4F2A2
:102A6000000188421BD0FFE70398006840F2004154
:102A7000C4F20101884212D0FFE70398006844F2D3
:102A80000001C4F20101884209D0FFE70398006801
:102A900041F60001C4F2000188420ED1FFE7009820
:102AA00020F0800000900298416800980843009050
:102AB0000098039909688860FFE70399012081F86D
:102AC0003D00FFE70399002081F83C00FFE700206C
:102AD0008DF81300FFE79DF8130005B07047000064
:102AE00080B582B00090009820B9FFE701208DF8F2
:102AF00007003FE0009890F83D0040B9FFE70099DB
:102B0000002081F83C00009800F038F8FFE70099B9
:102B1000022081F83D00009951F8040B03F004FDF8
:102B20000099012081F84600FFE70099012081F813
:102B30003E00009981F83F00009981F8400000991B
:102B400081F84100FFE7FFE70099012081F842008A
:102B5000009981F84300009981F84400009981F8B8
:102B60004500FFE70099012081F83D0000208DF825
:102B70000700FFE79DF8070002B080BD80B596B062
:102B800015900020149013901290119010901598A9
:102B900000680021C4F20101884212D1FFE7FFE77B
:102BA00000200F9043F64400C4F20200016841F097
:102BB00001010160006800F001000F900F98FFE72D
:102BC00077E115980068B0F1804F12D1FFE7FFE779
:102BD00000200E9043F64000C4F20200016841F06C
:102BE00001010160006800F001000E900E98FFE7FF
:102BF0005EE11598006840F20041C4F2000188428D
:102C000012D1FFE7FFE700200D9043F64000C4F229
:102C10000200016841F002010160006800F002005A
:102C20000D900D98FFE742E11598006840F600010D
:102C3000C4F20001884212D1FFE7FFE700200C90A8
:102C400043F64000C4F20200016841F00401016053
:102C5000006800F004000C900C98FFE726E115983E
:102C6000006840F60041C4F2000188421BD1FFE732
:102C7000FFE700200B9043F64000C4F20200016819
:102C800041F008010160006800F008000B900B980B
:102C9000FFE73220029000221146FFF7E5F8029884
:102CA000FFF7D8F801E11598006841F20001C4F27D
:102CB000000188421BD1FFE7FFE700200A9043F69E
:102CC0004000C4F20200016841F010010160006898
:102CD00000F010000A900A98FFE7362001900022C9
:102CE0001146FFF7C1F80198FFF7B4F8DCE015983A
:102CF000006841F20041C4F2000188421BD1FFE7A5
:102D0000FFE70020099043F64000C4F2020001688A
:102D100041F020010160006800F02000099009984E
:102D2000FFE73720009000221146FFF79DF800983A
:102D3000FFF790F8B7E01598006840F20041C4F240
:102D40000101884233D1FFE7FFE70020089043F6F6
:102D50004400C4F20200016841F002010160006811
:102D600000F0020008900898FFE7FFE700200790B6
:102D700043F63000C4F20200016841F00401016032
:102D8000006800F0040007900798FFE740201090CB
:102D9000022011900020129013900320149040F60E
:102DA0000000C4F2020010A9FEF76CF97AE0159851
:102DB000006844F20001C4F20101884233D1FFE708
:102DC000FFE70020069043F64400C4F202000168C9
:102DD00041F480310160006800F48030069006986C
:102DE000FFE7FFE70020059043F63000C4F2020041
:102DF000016841F010010160006800F010000590CA
:102E00000598FFE7202010900220119000201290DA
:102E100013900320149041F20000C4F2020010A9A4
:102E2000FEF730F93DE01598006841F60001C4F264
:102E30000001884234D1FFE7FFE70020049043F609
:102E40004000C4F20200016841F0400101600068E6
:102E500000F0400004900498FFE7FFE70020039093
:102E600043F63000C4F20200016841F00201016043
:102E7000006800F0020003900398FFE74FF48040E1
:102E800010900220119000201290139009201490AD
:102E900040F20040C4F2020010A9FEF7F3F8FFE789
:102EA000FFE7FFE7FFE7FFE7FFE7FFE7FFE7FFE7F2
:102EB000FFE716B080BD000083B00190019890F844
:102EC0003D00012804D0FFE701208DF80B006AE0E7
:102ED0000199022081F83D0001980168C86840F01E
:102EE0000100C860019800680021C4F20101884215
:102EF0003CD0FFE701980068B0F1804F36D0FFE783
:102F00000198006840F20041C4F2000188422DD0CF
:102F1000FFE70198006840F60001C4F20001884212
:102F200024D0FFE70198006840F60041C4F2000198
:102F300088421BD0FFE70198006840F20041C4F2CC
:102F40000101884212D0FFE70198006844F20001B5
:102F5000C4F20101884209D0FFE70198006841F6F8
:102F60000001C4F20001884212D1FFE70198006815
:102F7000806800F0070000900098062807D0FFE75F
:102F800001980168086840F001000860FFE706E06A
:102F900001980168086840F001000860FFE7002020
:102FA0008DF80B00FFE79DF80B0003B070470000A1
:102FB00080B586B00490039100208DF80B00FFE7E8
:102FC000049890F83C00012804D1FFE702208DF816
:102FD0001700ABE00499012081F83C00FFE7FFE710
:102FE0000499022081F83D000498006880680190EF
:102FF000019820F077000190019820F47F40019023
:103000000198049909688860039800680090002876
:1030100072D0FFE7009810286ED0FFE700982028B4
:103020006AD0FFE70098302866D0FFE70098402874
:1030300055D0FFE70098502837D0FFE70098602868
:1030400040D0FFE7009870280BD0FFE70098B0F55C
:10305000805F05D0FFE70098B0F5005F16D052E022
:1030600055E004980068039B5A689968DB6803F090
:1030700049FB0498006880680190019840F077004F
:103080000190019804990968886040E004980068FC
:10309000039B5A689968DB6803F034FB0498016865
:1030A000886840F48040886031E004980068039AA2
:1030B0005168D26803F012FD04980068502103F0B3
:1030C0003BFB24E004980068039A5168D26803F03F
:1030D000B9FD04980068602103F02EFB17E0049806
:1030E0000068039A5168D26803F0F8FC04980068FD
:1030F000402103F021FB0AE0049800680399096865
:1031000003F01AFB03E001208DF80B00FFE70499A0
:10311000012081F83D00FFE70499002081F83C0080
:10312000FFE79DF80B008DF81700FFE79DF81700EB
:1031300006B080BD81B0009001B0704780B586B008
:1031400004900391029200208DF80700FFE7049895
:1031500090F83C00012804D1FFE702208DF8170009
:1031600080E00499012081F83C00FFE7FFE7029826
:10317000B0B9FFE704980068039B19685A68DB68D8
:1031800003F0D4FC04980168886920F00C00886181
:10319000039882680498016888691043886156E042
:1031A0000298042817D1FFE704980068039B196868
:1031B0005A68DB6803F070FD04980168886920F4A0
:1031C000406088610398826804980168886940EAD1
:1031D000022088613AE00298082816D1FFE7049897
:1031E0000068039B19685A68DB6803F08BFD04983C
:1031F0000168C86920F00C00C861039882680498CF
:103200000168C8691043C8611FE002980C2817D1F3
:10321000FFE704980068039B19685A68DB6803F0AD
:10322000A7FD04980168C86920F44060C86103984C
:10323000826804980168C86940EA0220C86103E016
:1032400001208DF80700FFE7FFE7FFE7FFE7FFE753
:103250000499002081F83C00FFE79DF807008DF8F5
:103260001700FFE79DF8170006B080BD80B582B05B
:103270000090009820B9FFE701208DF807003FE09B
:10328000009890F83D0040B9FFE70099002081F8D0
:103290003C00009800F038F8FFE70099022081F820
:1032A0003D00009951F8040B03F03EF9009901200C
:1032B00081F84600FFE70099012081F83E0000995F
:1032C00081F83F00009981F84000009981F84100A1
:1032D000FFE7FFE70099012081F84200009981F89B
:1032E0004300009981F84400009981F84500FFE708
:1032F0000099012081F83D0000208DF80700FFE7CC
:103300009DF8070002B080BD81B0009001B0704709
:1033100080B590B00E900D910D9828B9FFE70E98EA
:1033200090F83E000A901CE00D98042805D1FFE7B4
:103330000E9890F83F00099010E00D98082805D1EC
:10334000FFE70E9890F84000089004E00E9890F87F
:1033500041000890FFE708980990FFE709980A9054
:10336000FFE70A988DF82F000D9828B9FFE70E980F
:1033700090F8420007901CE00D98042805D1FFE763
:103380000E9890F84300069010E00D98082805D19B
:10339000FFE70E9890F84400059004E00E9890F82E
:1033A00045000590FFE705980690FFE7069807900F
:1033B000FFE707988DF82E009DF82F00012805D112
:1033C000FFE79DF82E00012804D0FFE701208DF8CB
:1033D0003F00B4E00D9828B9FFE70E99022081F86C
:1033E0003E001EE00D98042806D1FFE70E9902204A
:1033F00081F83F00049012E00D98082806D1FFE7FD
:103400000E99022081F84000039005E00E990220F9
:1034100081F841000390FFE703980490FFE70498C8
:10342000FFE70D9828B9FFE70E99022081F84200C6
:103430001EE00D98042806D1FFE70E99022081F8BE
:103440004300029012E00D98082806D1FFE70E997C
:10345000022081F84400019005E00E99022081F8D5
:1034600045000190FFE701980290FFE70298FFE70F
:103470000E9800680D99012203F028F90E98006853
:103480000021C4F2010188423CD0FFE70E98006899
:10349000B0F1804F36D0FFE70E98006840F200414F
:1034A000C4F2000188422DD0FFE70E98006840F674
:1034B0000001C4F20001884224D0FFE70E980068A2
:1034C00040F60041C4F2000188421BD0FFE70E988D
:1034D000006840F20041C4F20101884212D0FFE7C7
:1034E0000E98006844F20001C4F20101884209D03C
:1034F000FFE70E98006841F60001C4F2000188421F
:1035000012D1FFE70E980068806800F007000C9069
:103510000C98062807D0FFE70E980168086840F06D
:1035200001000860FFE706E00E980168086840F0B7
:1035300001000860FFE700208DF83F00FFE79DF8DD
:103540003F0010B080BD000080B586B005900491AA
:10355000059800680499002203F0B8F8FFE7059881
:103560000068006A41F21111084210D1FFE7059886
:103570000068006A40F24441084207D1FFE705981D
:103580000168086820F001000860FFE7FFE7FFE737
:10359000049828B9FFE70599012081F83E001EE054
:1035A0000498042806D1FFE70599012081F83F001F
:1035B000039012E00498082806D1FFE7059901203E
:1035C00081F84000029005E00599012081F8410052
:1035D0000290FFE702980390FFE70398FFE7049843
:1035E00028B9FFE70599012081F842001EE0049800
:1035F000042806D1FFE70599012081F843000190D6
:1036000012E00498082806D1FFE70599012081F807
:103610004400009005E00599012081F845000090E4
:10362000FFE700980190FFE70198FFE7002006B050
:1036300080BD000080B584B0039003980068C06826
:10364000029003980068006901909DF804008007CB
:10365000002824D5FFE79DF80800800700281DD525
:10366000FFE7039801686FF00200086103990120E9
:103670000877039800688069800720B1FFE7039806
:10368000FFF758FD06E0039800F0BEF9039800F03C
:10369000B3FAFFE7039900200877FFE7FFE79DF8FB
:1036A00004004007002825D5FFE79DF808004007E3
:1036B00000281ED5FFE7039801686FF00400086139
:1036C00003990220087703980068806910F4407F0E
:1036D00004D0FFE70398FFF72DFD06E0039800F004
:1036E00093F9039800F088FAFFE703990020087720
:1036F000FFE7FFE79DF804000007002824D5FFE757
:103700009DF80800000700281DD5FFE70398016811
:103710006FF0080008610399042008770398006897
:10372000C069800720B1FFE70398FFF703FD06E0BB
:10373000039800F069F9039800F05EFAFFE7039937
:1037400000200877FFE7FFE79DF80400C006002887
:1037500025D5FFE79DF80800C00600281ED5FFE725
:10376000039801686FF0100008610399082008773A
:1037700003980068C06910F4407F04D0FFE7039805
:10378000FFF7D8FC06E0039800F03EF9039800F03C
:1037900033FAFFE7039900200877FFE7FFE79DF87A
:1037A0000400C00778B1FFE79DF80800C00748B1E2
:1037B000FFE7039801686FF001000861039800F0CB
:1037C00005FBFFE7FFE79DF804000006002810D581
:1037D000FFE79DF808000006002809D5FFE70398D9
:1037E00001686FF0800008610398FFF785F8FFE734
:1037F000FFE79DF804004006002810D5FFE79DF87C
:1038000008004006002809D5FFE7039801686FF01B
:1038100040000861039800F0F7FAFFE7FFE79DF822
:1038200004008006002810D5FFE79DF808008006F8
:10383000002809D5FFE7039801686FF020000861B0
:103840000398FFF75DF8FFE7FFE704B080BD0000D5
:1038500080B58CB00B9000200A90099008900790DA
:1038600006900B9800680021C4F20101884223D120
:10387000FFE7FFE70020059043F63000C4F20200A6
:10388000016841F010010160006800F0100005902F
:103890000598FFE74FF40070069002200790002083
:1038A0000890099001200A9041F20000C4F2020041
:1038B00006A9FDF7E7FBA5E00B980068B0F1804F83
:1038C00020D1FFE7FFE70020049043F63000C4F268
:1038D0000200016841F001010160006800F0010090
:1038E00004900498FFE7012006900221079100212F
:1038F000089109910A900020C4F2020006A9FDF780
:10390000C1FB7EE00B98006840F20041C4F2000168
:10391000884220D1FFE7FFE70020039043F6300004
:10392000C4F20200016841F001010160006800F08A
:10393000010003900398FFE74020069002200790C3
:103940000021089109910A900020C4F2020006A902
:10395000FDF798FB54E00B98006840F60001C4F2B4
:103960000001884222D1FFE7FFE70020029043F6E2
:103970003000C4F20200016841F0080101600068F3
:1039800000F0080002900298FFE74FF48050069084
:10399000022007900021089109910A9040F600400A
:1039A000C4F2020006A9FDF76DFB28E00B98006841
:1039B00040F60041C4F2000188421FD1FFE7FFE753
:1039C0000020019043F63000C4F20200016841F08B
:1039D00001010160006800F0010001900198FFE71B
:1039E0000220069007900021089109910A9000207A
:1039F000C4F2020006A9FDF745FBFFE7FFE7FFE77A
:103A0000FFE7FFE70CB080BD81B0009001B07047C8
:103A100080B586B004900391029200208DF80700D3
:103A2000FFE7049890F83C00012804D1FFE702204A
:103A30008DF8170089E00499012081F83C00FFE728
:103A4000FFE7029800900C2800F270800099DFE8F0
:103A500001F0076D6D6D206D6D6D3A6D6D6D5300EC
:103A600004980068039902F07DFE04980168886953
:103A700040F00800886104980168886920F004001B
:103A80008861039802690498016888691043886115
:103A900050E004980068039902F0DAFE0498016887
:103AA000886940F40060886104980168886920F49E
:103AB000806088610398026904980168886940EA17
:103AC0000220886136E004980068039902F03AFF0A
:103AD00004980168C86940F00800C861049801684A
:103AE000C86920F00400C86103980269049801685D
:103AF000C8691043C8611DE004980068039902F08A
:103B00009BFF04980168C86940F40060C86104988C
:103B10000168C86920F48060C8610398026904984C
:103B20000168C86940EA0220C86103E001208DF8FD
:103B30000700FFE7FFE70499002081F83C00FFE75A
:103B40009DF807008DF81700FFE79DF8170006B0F5
:103B500080BD000080B582B00090009820B9FFE7DA
:103B600001208DF807003FE0009890F83D0040B933
:103B7000FFE70099002081F83C00009800F038F839
:103B8000FFE70099022081F83D00009951F8040BED
:103B900002F0CAFC0099012081F84600FFE7009975
:103BA000012081F83E00009981F83F00009981F8DA
:103BB0004000009981F84100FFE7FFE700990120EC
:103BC00081F84200009981F84300009981F844008F
:103BD000009981F84500FFE70099012081F83D0038
:103BE00000208DF80700FFE79DF8070002B080BDB8
:103BF00081B0009001B0704781B0009001B0704773
:103C000080B58CB00A900991099828B9FFE70A9805
:103C100090F83E0007901CE00998042805D1FFE7C2
:103C20000A9890F83F00069010E00998082805D1FE
:103C3000FFE70A9890F84000059004E00A9890F891
:103C400041000590FFE705980690FFE7069807906A
:103C5000FFE70798012804D0FFE701208DF82F0027
:103C6000AFE0099828B9FFE70A99022081F83E00E1
:103C70001EE00998042806D1FFE70A99022081F87E
:103C80003F00049012E00998082806D1FFE70A993E
:103C9000022081F84000039005E00A99022081F893
:103CA00041000390FFE703980490FFE70498FFE7C3
:103CB0000A98006809990122019202F007FD019813
:103CC0000A9909680022C4F20102914202900CD0C4
:103CD000FFE70A9800684FF60041CBF6FE710844F2
:103CE000B0FA80F040090290FFE70298C00738B1AF
:103CF000FFE70A980168486C40F400404864FFE719
:103D00000A9800680021C4F2010188423CD0FFE714
:103D10000A980068B0F1804F36D0FFE70A98006833
:103D200040F20041C4F2000188422DD0FFE70A981A
:103D3000006840F60001C4F20001884224D0FFE789
:103D40000A98006840F60041C4F2000188421BD086
:103D5000FFE70A98006840F20041C4F2010188427E
:103D600012D0FFE70A98006844F20001C4F2010192
:103D7000884209D0FFE70A98006841F60001C4F2C2
:103D80000001884212D1FFE70A980068806800F0BD
:103D9000070008900898062807D0FFE70A980168EE
:103DA000086840F001000860FFE706E00A98016833
:103DB000086840F001000860FFE700208DF82F0040
:103DC000FFE79DF82F000CB080BD000081B000908F
:103DD000009840F2B031C2F20001884211D1FFE7F1
:103DE00040F22800C2F200000068012808D1FFE775
:103DF00040F23411C2F20001086801300860FFE7A8
:103E0000FFE701B07047000081B0009001B070473B
:103E1000FFE7FEE782B0009000980068406900F478
:103E200080610120B0EB912F1ED1FFE7009801685F
:103E30006FF480604861009900200863009A202197
:103E400082F83D10009981F83E000099086C40F01E
:103E500004000864FFE70099002081F83C00FFE7B8
:103E600001208DF8070003E000208DF80700FFE730
:103E70009DF8070002B0704780B586B0DDF824C019
:103E8000DDF820C00490ADF80E10ADF80C20ADF8B0
:103E90000A3004980168086840F48060086004985B
:103EA0000168086840F4807008600498089B0999CC
:103EB0006A4611604FF00111002200F0CFF880B186
:103EC000FFE7049800680068C005002805D5FFE7F3
:103ED00004994FF400700864FFE703208DF8170081
:103EE000B7E0BDF80E0000F0FE0004990968086113
:103EF0000498089A099B0221C0F2010100F032F9EE
:103F000020B1FFE701208DF81700A2E0FFE70020B5
:103F100001900498006840690190049800688069E5
:103F200001900198FFE704980899099A00F032FA85
:103F300080B1FFE70498006C042807D1FFE70498DC
:103F40000168086840F400700860FFE701208DF800
:103F500017007EE0BDF80A00012806D1FFE79DF8B2
:103F60000C0004990968086121E09DF80D0004998E
:103F70000968086104980899099A00F00BFA80B161
:103F8000FFE70498006C042807D1FFE70498016854
:103F9000086840F400700860FFE701208DF8170002
:103FA00057E09DF80C00049909680861FFE7049840
:103FB0000899099A00F0EEF980B1FFE70498006CC7
:103FC000042807D1FFE704980168086840F40070EE
:103FD0000860FFE701208DF817003AE004980168B7
:103FE000086840F4807008600498089B09996A4644
:103FF00011604FF00111002200F030F880B1FFE7AE
:10400000049800680068C005002805D5FFE70499FA
:104010004FF400700864FFE703208DF8170018E0E4
:104020009DF80E0040F001000499096808610498A9
:10403000089A099B0221C0F2010100F093F820B117
:10404000FFE701208DF8170003E000208DF817002E
:10405000FFE79DF8170006B080BD000080B588B06E
:10406000DDF828C0069005918DF813200393FFE733
:104070009DF8160001280CD1FFE7069800684069FA
:10408000BDF814100840401AB0FA80F040090290C0
:104090000BE0069800688069BDF814100840401ACB
:1040A000B0FA80F040090290FFE702989DF81310E3
:1040B00088424FD1FFE703980130002849D0FFE73D
:1040C000FDF7D4F90A99401A0399884203D8FFE70B
:1040D0000398E8BBFFE79DF8160001280CD1FFE725
:1040E000069800684069BDF814100840401AB0FAFC
:1040F00080F0400901900BE0069800688069BDF8E7
:1041000014100840401AB0FA80F040090190FFE70F
:1041100001989DF81310884219D1FFE706990020F5
:104120000863069A202182F83D10069981F83E0026
:104130000699086C40F020000864FFE7069900200B
:1041400081F83C00FFE701208DF81F0006E0FFE743
:10415000FFE78DE700208DF81F00FFE79DF81F00A7
:1041600008B080BD80B588B0069005910492039395
:10417000FFE79DF8160001280CD1FFE706980068BC
:104180004069BDF814100840401AB0FA80F04009A8
:1041900002900BE0069800688069BDF81410084092
:1041A000401AB0FA80F040090290FFE70298002818
:1041B0007AD1FFE706980068406900F48061012029
:1041C000B0EB912F24D1FFE706980168086840F40E
:1041D00000700860069801686FF480604861069975
:1041E00000200863069A202182F83D10069981F884
:1041F0003E000699086C40F004000864FFE7069949
:10420000002081F83C00FFE701208DF81F004FE0FF
:1042100004980130002846D0FFE7FDF727F90399FD
:10422000401A0499884203D8FFE70498D0BBFFE7FF
:104230009DF8160001280CD1FFE706980068406938
:10424000BDF814100840401AB0FA80F040090190FF
:104250000BE0069800688069BDF814100840401A09
:10426000B0FA80F040090190FFE70198C8B9FFE774
:10427000069900200863069A202182F83D100699CD
:1042800081F83E000699086C40F020000864FFE7C2
:104290000699002081F83C00FFE701208DF81F00FF
:1042A00006E0FFE7FFE764E700208DF81F00FFE767
:1042B0009DF81F0008B080BD80B584B002900191C8
:1042C0000092FFE702980068406900F0400100207A
:1042D000B0EB911F56D1FFE702980068406900F0EB
:1042E00010010120B0EB111F1CD1FFE702980168FB
:1042F0006FF010004861029900200863029A2021A3
:1043000082F83D10029981F83E000299086C086419
:10431000FFE70299002081F83C00FFE701208DF8BB
:104320000F0033E0FDF7A2F80099401A0199884286
:1043300003D8FFE7019820BBFFE7029800684069B7
:1043400000F040010020B0EB911F19D1FFE7029966
:1043500000200863029A202182F83D10029981F81A
:104360003E000299086C40F020000864FFE70299C3
:10437000002081F83C00FFE701208DF80F0005E0E8
:10438000FFE79FE700208DF80F00FFE79DF80F0083
:1043900004B080BD80B584B0029001910092FFE727
:1043A000029800684069C1B20020B0EBD11F3DD136
:1043B000FFE70298FFF72EFD20B1FFE701208DF8FF
:1043C0000F0037E00198013078B3FFE7FDF74EF8B2
:1043D0000099401A0199884203D8FFE7019818BB59
:1043E000FFE7029800684069C1B20020B0EBD11F1E
:1043F00019D1FFE7029900200863029A202182F870
:104400003D10029981F83E000299086C40F02000AE
:104410000864FFE70299002081F83C00FFE70120D3
:104420008DF80F0006E0FFE7FFE7B9E700208DF801
:104430000F00FFE79DF80F0004B080BD80B582B08B
:104440009820DD210DF10702012300F021F89DF8ED
:10445000070002B080BD000080B582B09820DD2149
:104460000DF10702012300F037F89DF8070002B0B4
:1044700080BD000080B582B09820DD210DF10702DB
:10448000012300F04DF89DF8070002B080BD000048
:1044900080B586B08DF817008DF8161004928DF84F
:1044A0000F309DF817109DF8162004989DF80FC046
:1044B0006B4642F2107EC3F808E0C3F804C01860EF
:1044C00040F24C10C2F200000123FDF727F9B0FAC8
:1044D00080F0400906B080BD80B586B08DF8170029
:1044E0008DF8161004928DF80F309DF817109DF876
:1044F000162004989DF80FC06B4642F2107EC3F858
:1045000008E0C3F804C0186040F2A010C2F2000036
:104510000123FDF703F9B0FA80F0400906B080BD31
:1045200080B586B08DF817008DF8161004928DF8BE
:104530000F309DF817109DF8162004989DF80FC0B5
:104540006B4642F2107EC3F808E0C3F804C018605E
:1045500040F2F410C2F200000123FDF7DFF8B0FAD8
:1045600080F0400906B080BD80B598B0002017905B
:104570001690159014901390FFE70020129043F6C8
:104580003000C4F20200016841F0100101600068CF
:1045900000F0100012901298FFE7FFE70020119042
:1045A00043F63000C4F20200016841F001010160ED
:1045B000006800F0010011901198FFE7FFE700206C
:1045C000109043F63000C4F20200016841F004018B
:1045D0000160006800F0040010901098FFE7FFE70A
:1045E00000200F9043F63000C4F20200016841F051
:1045F00002010160006800F002000F900F98FFE7D1
:10460000FFE700200E9043F63000C4F2020001687C
:1046100041F008010160006800F008000E900E985B
:10462000FFE70020C4F202000290802101910022E5
:104630000B92FCF703FF0B9A40F60000C4F2020055
:10464000049020210391FCF7F9FE0B9A41F200003F
:10465000C4F20200069048F280010591FCF7EEFEDC
:104660000B9A40F20040C4F2020008904FF430412F
:104670000791FCF7E3FE0B9A40F60040C4F20200FB
:104680000C904FF400610991FCF7D8FE02980B9949
:104690004FF4816213921491159113A90D91FCF7B7
:1046A000F1FC019B02980B9A0D99139301230A9335
:1046B000149315921692FCF7E5FCDDF80CC00498F3
:1046C0000A9B0B9A0D99CDF84CC014931592169233
:1046D000FCF7D8FCDDF814C006980A9B0B9A0D99DC
:1046E000CDF84CC0149315921692FCF7CBFCDDF874
:1046F0001CC008980A9B0B9A0D99CDF84CC01493D6
:1047000015921692FCF7BEFC0B9A0C980D994FF47B
:104710000073139314921592FCF7B4FCDDF824C0D7
:104720000A9B0B9A0C980D99CDF84CC014931592D6
:104730001692FCF7A7FC18B080BD000080B582B0CF
:1047400040F24C10C2F20000019045F20041C4F268
:104750000001016048F2A061C0F201014160002146
:104760008160C1604FF48042026141618161C16139
:104770000162FCF781FE18B1FFE7FCF75BF8FFE789
:1047800002B080BD80B582B040F2A010C2F200003D
:10479000019045F60001C4F20001016048F2A061F9
:1047A000C0F20101416000218160C1604FF480428C
:1047B000026141618161C1610162FCF75DFE18B176
:1047C000FFE7FCF737F8FFE702B080BD80B582B0A5
:1047D00040F2F410C2F20000019045F60041C4F22C
:1047E0000001016048F2A061C0F2010141600021B6
:1047F0008160C1604FF48042026141618161C161A9
:104800000162FCF739FE18B1FFE7FCF713F8FFE788
:1048100002B080BD80B58AB0002101910991089154
:1048200007910691059104910391029140F2902025
:10483000C2F2000041F60002C4F2000202605322FC
:10484000426081604FF6FF72C26001618161FEF7D4
:1048500047F918B1FFE7FBF7EDFFFFE74FF4805092
:10486000069040F29020C2F2000006A9FEF7A0FBDD
:1048700018B1FFE7FBF7DEFFFFE740F29020C2F23E
:104880000000FEF7F3FC18B1FFE7FBF7D3FFFFE7EB
:1048900000220292012003900492059240F290209F
:1048A000C2F2000002A9FEF749FC18B1FFE7FBF7CE
:1048B000C1FFFFE70220039040F29020C2F2000007
:1048C00002A90422FEF73AFC18B1FFE7FBF7B2FF9A
:1048D000FFE70AB080BD000080B598B000210191CB
:1048E00017911691159114911391129111911091A4
:1048F0000F910E910D910C910B910A9109910891D4
:104900000791069105910491039140F24820C2F26B
:10491000000002900022C4F201020260A72242605D
:1049200081606322C260016141618161FEF7D8F854
:1049300018B1FFE7FBF77EFFFFE74FF480501490BC
:1049400040F24820C2F2000014A9FEF731FB18B172
:10495000FFE7FBF76FFFFFE740F24820C2F20000DD
:10496000FFF7F8F818B1FFE7FBF764FFFFE7002057
:104970001290139040F24820C2F2000012A9FEF7F4
:104980001DF818B1FFE7FBF755FFFFE760200B901C
:1049900000220C920D920E920F921092119240F200
:1049A0004820C2F200000BA9FFF732F818B1FFE768
:1049B000FBF740FFFFE7002003900490059006906E
:1049C00007904FF4005108910A9040F24820C2F23B
:1049D000000003A9FDF798FF18B1FFE7FBF72AFFD6
:1049E000FFE740F24820C2F20000FEF731FF18B0A6
:1049F00080BD000080B58EB0002100910D910C911A
:104A00000B910A91099108910791069105910491E2
:104A100003910291019140F2D820C2F200004FF0C0
:104A2000804202605322426081606322C260016161
:104A30008161FEF755F818B1FFE7FBF7FBFEFFE7D2
:104A40004FF480500A9040F2D820C2F200000AA928
:104A5000FEF7AEFA18B1FFE7FBF7ECFEFFE740F216
:104A6000D820C2F20000FFF775F818B1FFE7FBF796
:104A7000E1FEFFE700200890099040F2D820C2F242
:104A8000000008A9FDF79AFF18B1FFE7FBF7D2FE77
:104A9000FFE760200190002202920392059240F20B
:104AA000D820C2F2000001A9FEF7B2FF18B1FFE75B
:104AB000FBF7C0FEFFE740F2D820C2F20000FEF78D
:104AC000C7FE0EB080BD000080B58EB00021009101
:104AD0000D910C910B910A91099108910791069102
:104AE0000591049103910291019140F22030C2F2AC
:104AF000000040F20042C4F2000202605322426011
:104B000081606322C26001618161FDF7E9FF18B134
:104B1000FFE7FBF78FFEFFE74FF480500A9040F26B
:104B20002030C2F200000AA9FEF742FA18B1FFE7EE
:104B3000FBF780FEFFE740F22030C2F20000FFF7F3
:104B400009F818B1FFE7FBF775FEFFE700200890B2
:104B5000099040F22030C2F2000008A9FDF72EFFB4
:104B600018B1FFE7FBF766FEFFE760200190002227
:104B700002920392059240F22030C2F2000001A995
:104B8000FEF746FF18B1FFE7FBF754FEFFE740F2E0
:104B90002030C2F20000FEF75BFE0EB080BD0000C8
:104BA00080B58EB0002100910D910C910B910A916E
:104BB0000991089107910691059104910391029141
:104BC000019140F26830C2F2000040F60002C4F2E7
:104BD000000202605322426081606322C260016170
:104BE0008161FDF77DFF18B1FFE7FBF723FEFFE7CB
:104BF0004FF480500A9040F26830C2F200000AA9D7
:104C0000FEF7D6F918B1FFE7FBF714FEFFE740F215
:104C10006830C2F20000FEF79DFF18B1FFE7FBF716
:104C200009FEFFE700200890099040F26830C2F2C8
:104C3000000008A9FDF7C2FE18B1FFE7FBF7FAFD77
:104C4000FFE760200190002202920392059240F259
:104C50006830C2F2000001A9FEF7DAFE18B1FFE7E2
:104C6000FBF7E8FDFFE740F26830C2F20000FEF714
:104C7000EFFD0EB080BD000080B58EB00021009128
:104C80000D910C910B910A91099108910791069150
:104C90000591049103910291019140F2B030C2F26A
:104CA000000040F60042C4F200020260532242605B
:104CB00081606322C26001618161FDF711FF18B15B
:104CC000FFE7FBF7B7FDFFE74FF480500A9040F293
:104CD000B030C2F200000AA9FEF76AF918B1FFE786
:104CE000FBF7A8FDFFE740F2B030C2F20000FEF78C
:104CF00031FF18B1FFE7FBF79DFDFFE700200890AB
:104D0000099040F2B030C2F2000008A9FDF756FE4B
:104D100018B1FFE7FBF78EFDFFE760200190002050
:104D200002900390059040F2B030C2F2000001A959
:104D30000422FEF76DFE18B1FFE7FBF77BFDFFE7EE
:104D400040F2B030C2F20000FEF782FD0EB080BD2E
:104D500080B582B000210191009140F2F830C2F29A
:104D6000000041F20002C4F20002026053224260DD
:104D7000816042F20F72C2608161FDF7B1FE18B12D
:104D8000FFE7FBF757FDFFE700200090019040F29E
:104D9000F830C2F200006946FDF710FE18B1FFE7D7
:104DA000FBF748FDFFE702B080BD000080B582B090
:104DB00000210191009140F24040C2F2000041F216
:104DC0000042C4F2000202605322426081604FF64A
:104DD000FF72C2608161FDF783FE18B1FFE7FBF748
:104DE00029FDFFE700200090019040F24040C2F210
:104DF00000006946FDF7E2FD18B1FFE7FBF71AFD79
:104E0000FFE702B080BD000080B58CB000210091AA
:104E10000B910A91099108910791069105910491CE
:104E20000391029140F28840C2F20000019040F2EA
:104E30000042C4F201020260A722426081604FF684
:104E4000FF72C2600161416180218161FDF748FE0E
:104E500018B1FFE7FBF7EEFCFFE74FF48050089036
:104E600040F28840C2F2000008A9FEF7A1F818B18C
:104E7000FFE7FBF7DFFCFFE740F28840C2F20000EB
:104E8000FEF7F4F918B1FFE7FBF7D4FCFFE70020C9
:104E90000690079040F28840C2F2000006A9FDF794
:104EA0008DFD18B1FFE7FBF7C5FCFFE7002202927A
:104EB000012003900492059240F28840C2F2000063
:104EC00002A9FEF73BF918B1FFE7FBF7B3FCFFE7D8
:104ED00002200290039040F28840C2F2000002A932
:104EE0000422FEF72BF918B1FFE7FBF7A3FCFFE75D
:104EF0000CB080BD80B58AB0002101910991089164
:104F000007910691059104910391029140F2D040DE
:104F1000C2F2000044F20002C4F201020260A722C1
:104F2000426081604FF6FF72C26001618161FDF7EE
:104F3000D7FD18B1FFE7FBF77DFCFFE74FF480508A
:104F4000069040F2D040C2F2000006A9FEF730F809
:104F500018B1FFE7FBF76EFCFFE740F2D040C2F26A
:104F60000000FEF783F918B1FFE7FBF763FCFFE7EA
:104F700000220292012003900492059240F2D04058
:104F8000C2F2000002A9FEF7D9F818B1FFE7FBF75B
:104F900051FCFFE702200290039040F2D040C2F2A1
:104FA000000002A90422FEF7C9F818B1FFE7FBF7D9
:104FB00041FCFFE70AB080BDFFE7FEE7000000000C
:104FC00080B586B040F29000C2F200008068FBF726
:104FD00021FB41EC100B9FEDCA1B53EC112B51EC44
:104FE000100BFBF7D7F941EC100B51EC100B9FEDB8
:104FF000C60B53EC102BFBF73FFA41EC100B51ECB6
:10500000100BFBF71AFB40F23011C2F200010860EE
:1050100000F026FB40F23810C2F2000080ED000ADA
:1050200090ED000AB4EE400AF1EE10FA15D1FFE758
:1050300040F23810C2F20000006820F00040FBF798
:10504000E9FA41EC100B9FEDB21B53EC112B51EC24
:10505000100BFBF79BFA38B9FFE740F23811C2F2A8
:10506000000100200860FFE740F23010C2F20000AB
:10507000059090ED000A40F23810C2F2000090ED69
:10508000001A70EE010A40F24000C2F20000FBF785
:10509000D5FB0598B0EE401A90ED000A30EE010AFB
:1050A00080ED000A40F22400C2F2000000780128DE
:1050B0001DD1FFE740F23010C2F200000068FBF79C
:1050C000A9FA41EC100B9FED941B53EC112B51EC02
:1050D000100BFBF75FF941EC100B51EC100BFBF7D9
:1050E000ACFA40F29001C2F200014860FFE740F2E2
:1050F0002400C2F20000007802281DD1FFE740F230
:105100003010C2F200000068FBF784FA41EC100B8B
:105110009FED831B53EC112B51EC100BFBF73AF96D
:1051200041EC100B51EC100BFBF787FA40F29001A9
:10513000C2F200010860FFE740F22400C2F2000062
:10514000007803281DD1FFE740F23010C2F20000C2
:105150000068FBF75FFA41EC100B9FED731B53ECFB
:10516000112B51EC100BFBF715F941EC100B51EC26
:10517000100BFBF762FA40F29001C2F200010860E6
:10518000FFE740F23010C2F200000068FBF742FA7D
:1051900041EC100B9FED661B53EC112B51EC100BE7
:1051A000FBF7F8F841EC100B51EC100BFBF745FA4C
:1051B00040F29001C2F20001886040F23810C2F261
:1051C000000090ED000AB5EE400AF1EE10FA07D1AA
:1051D000FFE740F29001C2F2000100208860FFE783
:1051E00040F29000C2F200008068FBF713FA41EC35
:1051F000100B8DED020B40F24000C2F20000806AFD
:10520000FBF708FA41EC100B9FED4B1B53EC112BF5
:1052100051EC100BFBF717F89DED020B41EC110B55
:1052200053EC112B51EC100BFBF795F9E8B9FFE7A4
:1052300040F24000C2F20000806AFBF7EBF941EC5B
:10524000100B9FED3D1B53EC112B51EC100BFAF79B
:10525000FAFF41EC100B51EC100BFBF7EEF940F2AA
:105260009001C2F20001886045E040F29000C2F275
:1052700000008068FBF7CEF941EC100B8DED000BC0
:1052800040F24000C2F20000806AFBF7C3F941EC33
:10529000100B9FED2B1B51EC110B53EC102BFBF75C
:1052A00073F89DED000B41EC110B53EC112B51ECFD
:1052B000100BFBF76BF9E8B9FFE740F24000C2F2D0
:1052C0000000806AFBF7A6F941EC100B9FED1C1B58
:1052D00051EC110B53EC102BFBF756F841EC100B73
:1052E00051EC100BFBF7A9F940F29001C2F200015A
:1052F0008860FFE7FFE706B080BD00BF00BF00BFCA
:1053000000000000000024400000000000001C40DD
:10531000FCA9F1D24D62503F7B14AE47E17AB43F15
:10532000EC51B81E85EBC1BFEC51B81E85EBC13FF7
:10533000CDCCCCCCCCCCE43F000000000000C03F82
:10534000000000000000C0BFFFE7FEE788B0079044
:1053500006910592079800F0070004900498C0F1A8
:105360000700052803D3FFE70420019004E0049818
:10537000C0F107000190FFE7019803900498043002
:10538000062803D8FFE70020009003E004980338C4
:105390000090FFE70098029006980399012202FA14
:1053A00001F101390840029B984005999A40013A61
:1053B0001140084308B0704785B004908DED030A92
:1053C000CDED020A8DED011ACDED001A0398049976
:1053D000886102980499486101980499C86100980D
:1053E000049988620499002048620499086205B013
:1053F00070470000704700007047000080B586B01D
:1054000005908DED040A039100200290102001F018
:10541000D1FE02909DED040AB5EE400AF1EE10FABD
:1054200011DBFFE70598012804D0FFE70598022863
:1054300004D1FFE702990020486003E002990120AF
:105440004860FFE710E00598012804D0FFE70598C1
:10545000022804D1FFE702990120486003E0029985
:1054600000204860FFE7FFE79DED040AB0EEC00AA8
:10547000029880ED020A059802990860059940F2A9
:105480003C10C2F2000000EB8101012041F8040C45
:105490000598013801460091032800F29580009993
:1054A000DFE801F00225486D029940F24820C2F27F
:1054B0000000C86002984068012809D1FFE741F266
:1054C0000000C4F2020080210122FBF7B7FF0DE0CB
:1054D0000298406848B9FFE741F20000C4F20200B8
:1054E00080210022FBF7AAFFFFE7FFE76DE00299AA
:1054F00040F2D820C2F20000C8600298406801283B
:1055000009D1FFE740F60000C4F202002021012289
:10551000FBF794FF0DE00298406848B9FFE740F6BA
:105520000000C4F2020020210022FBF787FFFFE702
:10553000FFE74AE0029940F22030C2F20000C86062
:105540000298406801280AD1FFE740F60040C4F203
:1055500002004FF400610122FBF770FF0EE0029899
:10556000406850B9FFE740F60040C4F202004FF433
:1055700000610022FBF762FFFFE7FFE725E00299E9
:1055800040F26830C2F20000C8600298406801280A
:105590000AD1FFE741F20000C4F202004FF40041DB
:1055A0000122FBF74BFF0EE00298406850B9FFE77D
:1055B00041F20000C4F202004FF400410022FBF768
:1055C0003DFFFFE7FFE700E0FFE7029890ED020AEA
:1055D0009FED221A20EE010A8DED010A9DED010AD0
:1055E000B5EE400AF1EE10FA0AD1FFE70298C06862
:1055F0000168002048620299C9680968486325E08B
:105600000298C068016800204862FFE79DED010A2A
:105610000298C0680068BCEEC00A80ED0B0A9DEDE0
:10562000010A0298C068BCEEC00A80ED030AFFE7D9
:105630009DED010AB6EE001A20EE010A0298C0683C
:105640000068BCEEC00A80ED0D0AFFE7029801F089
:1056500089FD0020029006B080BD00BF00409C4341
:1056600080B582B00020019040F22400C2F2000018
:105670000078012840F0E280FFE740F2CC00C2F25F
:105680000000C068A8B9FFE70198FAF7C3FF41EC32
:10569000100B9FEDD51B53EC112B51EC100BFAF7AF
:1056A000D2FD41EC100B51EC100BFAF7C6FF019044
:1056B000FFE740F2CC00C2F200000069A8B9FFE7A2
:1056C0000198FAF7A7FF41EC100B9FEDC91B53ECB3
:1056D000112B51EC100BFAF7B6FD41EC100B51EC0D
:1056E000100BFAF7AAFF0190FFE740F2CC00C2F2DC
:1056F00000008068A8B9FFE70198FAF78BFF41EC3A
:10570000100B9FEDBD1B53EC112B51EC100BFAF756
:105710009AFD41EC100B51EC100BFAF78EFF019043
:10572000FFE740F2CC00C2F200004069A8B9FFE7F1
:105730000198FAF76FFF41EC100B9FEDB11B53EC92
:10574000112B51EC100BFAF77EFD41EC100B51ECD4
:10575000100BFAF772FF0190FFE740F2CC00C2F2A3
:1057600000004068A8B9FFE70198FAF753FF41EC41
:10577000100B9FEDA51B53EC112B51EC100BFAF7FE
:1057800062FD41EC100B51EC100BFAF756FF019043
:10579000FFE740F2CC00C2F200008069A8B9FFE741
:1057A0000198FAF737FF41EC100B9FED991B53EC72
:1057B000112B51EC100BFAF746FD41EC100B51EC9C
:1057C000100BFAF73AFF0190FFE740F2CC00C2F26B
:1057D00000000068A8B9FFE70198FAF71BFF41EC49
:1057E000100B9FED8D1B53EC112B51EC100BFAF7A6
:1057F0002AFD41EC100B51EC100BFAF71EFF019043
:10580000FFE740F2CC00C2F20000C069A8B9FFE790
:105810000198FAF7FFFE41EC100B9FED811B53EC52
:10582000112B51EC100BFAF70EFD41EC100B51EC63
:10583000100BFAF702FF0190FFE7F7E140F22400B6
:10584000C2F200000078032840F00481FFE740F234
:105850000C10C2F20000C068A8B9FFE70198FAF77F
:10586000D9FE41EC100B9FED601B53EC112B51EC5A
:10587000100BFAF7E8FC41EC100B51EC100BFAF7A7
:10588000DCFE0190FFE740F20C10C2F2000000695C
:10589000A8B9FFE70198FAF7BDFE41EC100B9FEDA8
:1058A000541B53EC112B51EC100BFAF7CCFC41ECD0
:1058B000100B51EC100BFAF7C0FE0190FFE740F21D
:1058C0000C10C2F200008068A8B9FFE70198FAF74F
:1058D000A1FE41EC100B9FED481B53EC112B51EC3A
:1058E000100BFAF7B0FC41EC100B51EC100BFAF76F
:1058F000A4FE0190FFE740F20C10C2F200004069E4
:10590000A8B9FFE70198FAF785FE41EC100B9FED6F
:105910003C1B53EC112B51EC100BFAF794FC41ECAF
:10592000100B51EC100BFAF788FE0190FFE740F2E4
:105930000C10C2F200004068A8B9FFE70198FAF71E
:1059400069FE41EC100B9FEDDE1B53EC112B51EC6B
:10595000100BFAF778FC41EC100B51EC100BFAF736
:105960006CFE0190FFE740F20C10C2F2000080696B
:10597000A8B9FFE70198FAF74DFE41EC100B9FED37
:10598000D21B53EC112B51EC100BFAF75CFC41ECE1
:10599000100B51EC100BFAF750FE0190FFE740F2AC
:1059A0000C10C2F200000068A8B9FFE70198FAF7EE
:1059B00031FE41EC100B9FEDC61B53EC112B51EC4B
:1059C000100BFAF740FC41EC100B51EC100BFAF7FE
:1059D00034FE0190FFE740F20C10C2F20000C069F3
:1059E000B8BB21E000BF00BF9A9999999999B93F36
:1059F0009A9999999999B9BF9A9999999999C93FF9
:105A00009A9999999999C9BF9A9999999999D13FD0
:105A10009A9999999999D1BF666666666666D63FE6
:105A2000666666666666D6BF0198FAF7F3FD41ECD6
:105A3000100B9FEDA91B53EC112B51EC100BFAF737
:105A400002FC41EC100B51EC100BFAF7F6FD019043
:105A5000FFE7EAE040F22400C2F2000000780228EA
:105A600040F0E280FFE740F2EC00C2F20000C068C4
:105A7000A8B9FFE70198FAF7CDFD41EC100B9FEDB7
:105A8000881B53EC112B51EC100BFAF7DCFB41ECAB
:105A9000100B51EC100BFAF7D0FD0190FFE740F22C
:105AA000EC00C2F200000069A8B9FFE70198FAF71C
:105AB000B1FD41EC100B9FED7C1B53EC112B51EC15
:105AC000100BFAF7C0FB41EC100B51EC100BFAF77E
:105AD000B4FD0190FFE740F2EC00C2F200008068E4
